:020000040800F2
:100000005828002065030008513F0008F93B00080C
:100010004D3F000805150008F560000800000000CD
:10002000000000000000000000000000B1410008D6
:100030009515000800000000553F0008B541000874
:100040007F0300087F0300087F0300087F03000888
:100050007F0300087F0300087F0300087F03000878
:100060007F0300087F0300087F0300087F03000868
:100070007F0300087F0300087F0300087F03000858
:100080007F0300087F0300087F0300087F03000848
:10009000B15F00087F0300087F0300087F030008AA
:1000A0007F0300087F0300087F0300087F03000828
:1000B0007F0300087F0300087F0300087F03000818
:1000C0007F0300087F0300087F0300087F03000808
:1000D0007F0300087F0300087F0300087F030008F8
:1000E0007F0300087F0300087F0300087F030008E8
:1000F0007F0300087F0300087F0300087F030008D8
:100100007F0300087F0300087F0300087F030008C7
:100110007F0300087F0300087F0300087F030008B7
:100120007F0300087F0300087F0300087F030008A7
:100130007F0300087F0300087F0300087F03000897
:100140007F0300087F0300087F0300087F03000887
:100150007F0300087F0300087F0300087F03000877
:100160007F0300087F0300087F0300087F03000867
:100170007F0300087F0300087F0300087F03000857
:100180007F0300087F0300087F0300087F03000847
:100190007F030008000000007F0300087F030008C1
:1001A0007F0300087F0300087F0300087F03000827
:1001B0007F0300087F0300087F0300087F03000817
:1001C0007F0300087F0300087F0300087F03000807
:1001D0007F0300087F03000800F002F800F0B2F887
:1001E0000AA090E8000C82448344AAF10107DA4592
:1001F00001D100F0A7F8AFF2090EBAE80F0013F032
:10020000010F18BFFB1A43F001031847886A00006A
:10021000A86A00000A444FF0000C10F8013B13F0EC
:10022000070408BF10F8014B1D1108BF10F8015B4F
:10023000641E05D010F8016B641E01F8016BF9D142
:1002400013F0080F1EBF10F8014BAD1C0C1B09D199
:100250006D1E58BF01F801CBFAD505E014F8016B0B
:1002600001F8016B6D1EF9D59142D6D3704700009D
:100270000023002400250026103A28BF78C1FBD8AF
:10028000520728BF30C148BF0B6070476E2900F08D
:100290006F81702900F0B382662906F070846529A9
:1002A00006F06D84672906F06A84612906F0698486
:1002B00003681B0A28BF41F08001692900F01C81F6
:1002C000642900F01981752900F016816F2900F06A
:1002D0004182782900F07F82E92900F0DB81E4295E
:1002E00000F0D881F52900F0D581EF2900F03E8299
:1002F000F82900F07E820368DB0928BF41F0800105
:10030000632900F07F87732900F08487E32900F0D8
:100310008F87F32900F09487002070471FB506F0FF
:1003200021FC00F0E3FF04000020002106F004FCA3
:10033000401C60600020002106F0E8FBE0601FBD6B
:1003400010B510BD00F0A4FF1146FFF7E7FF05F060
:1003500027FF01F081F803B4FFF7F2FF03BC01F0BF
:10036000C9F800000948804709480047FEE7FEE752
:10037000FEE7FEE7FEE7FEE7FEE7FEE7FEE7FEE755
:1003800004480549054A064B704700003142000801
:10039000D9010008581C00205828002058200020AF
:1003A000582000207CB51D4616460C00009007D052
:1003B0004142A14202D32044401E01E04FF0FF30F1
:1003C000064B7B442A4669460190304600F0E9F826
:1003D000002C02D0009A002111707CBD03020000A5
:1003E0004FF0000200B5134694469646203922BFCE
:1003F000A0E80C50A0E80C50B1F12001BFF4F7AF19
:10040000090728BFA0E80C5048BF0CC05DF804EBFA
:10041000890028BF40F8042B08BF704748BF20F868
:10042000022B11F0804F18BF00F8012B7047704766
:100430007047704770B5044685690068C10601D5EC
:10044000302600E02026C00707D070BDD4E9012186
:1004500030469047206A401C20626D1EF6D570BD64
:1004600070B5044685690078C00707D170BDD4E92E
:10047000012120209047206A401C20626D1EF6D585
:1004800070BD09684A0501D540B27047C905FCD561
:1004900000B2704709684A0501D5C0B27047C90566
:1004A000FCD580B2704770B50C460546012A05D0D0
:1004B0002878800600D5EA69002302E0012305E0E0
:1004C0005B1C934202D2E05C0028F9D1A869E618CF
:1004D000C01AA861286A184428622846FFF7AAFFB4
:1004E00004E0D5E9012114F8010B9047B442F8D398
:1004F0002846FFF7B5FF70BD2DE9F0410646002400
:1005000010687529314616A510D0FFF7BAFF0028EC
:1005100002DA404213A507E031688A0701D512A527
:1005200002E0490704D511A5012401E0FFF7B2FF5D
:1005300000210A2206F1240709E0B0FBF2FCB0FB1F
:10054000F2F302FB1C00303078541846491C002896
:10055000F3D123462A463046BDE8F04100F063BAA5
:10056000000000002D0000002B0000002000000013
:1005700011680268006A530501D508700AE0D305C6
:1005800001D5088006E0130603D5C217C1E90002B1
:1005900000E008600120704701694A1C0261087888
:1005A000704700B58FB0CDE90131002105910549B3
:1005B0007944CDE903101146684600F02BF90FB0DD
:1005C00000BD0000E5FFFFFFD1E900239A4202D2FF
:1005D000531C0B60107070472DE9FF5F15468A466B
:1005E0000446DFF8AC80F8440027D8E900103E4606
:1005F000CDE9001010E03AF816106A4602A800F0A3
:1006000023FE411C07D02178890603D5E2693918F9
:1006100091420DD80744761C2078800602D5E06907
:10062000B84205DDAE42E6DB3AF816000028E2D11A
:10063000A069C01BA0612046FFF7FCFED8E90010AE
:10064000CDE90010002017E03AF818106A4602A819
:1006500000F0FAFDB0F1FF3F81460BD000250DF10F
:10066000080B05E0D4E901211BF8050090476D1C3B
:100670004D45F7D308F10100B0428046E4DB206A23
:10068000384420622046FFF7EBFEBDE8FF9F0000E4
:100690009E6500002DE9F0418046D21D22F0070240
:1006A0000025D2E90002F52915A614D0011E72F129
:1006B000000106DA0023D0EB030063EB020211A66F
:1006C00008E0D8F800108B0701D50FA602E0490713
:1006D00001D50EA601251146002408F1240704E0E7
:1006E00000F05CF930323A55641C50EA0102F7D14F
:1006F0002B46324621464046BDE8F04100F093B912
:10070000000000002D0000002B0000002000000071
:1007100030B4002100F1240408E002F00705D208FB
:10072000303542EA4372DB086554491C52EA03053E
:10073000F3D10468002310A2250708D504F0200493
:100740000C4304D0C46901230CA2641EC46130BCF4
:1007500000F069B910B5044621461068FFF79AFE0B
:1007600002462046BDE810400023D1E7D21D22F00A
:100770000701D1E90023CBE70000000030000000B2
:10078000F0B40D460188090502D5214C7C4402E0F5
:100790001F4C7C440E34002100F1240608E002F0D6
:1007A0000F071209E75D42EA03721B097754491CDF
:1007B00052EA0307F3D102780023120704D5702D03
:1007C00006D009B1022311342246F0BC00F02BB947
:1007D00001231034F8E770B504460D462146106831
:1007E000FFF758FE024629462046BDE87040002328
:1007F000C6E7D21D22F00703D3E90023C0E7036850
:10080000126843F0200303600823C3610023B7E7A5
:10081000006400002DE9F05F894604464FF0000AAD
:10082000DFF874B1FB44C0F820A02046E168884797
:10083000002874D0252806D0D4E901219047206AE9
:10084000401C2062F1E700265F462046E1688847A9
:100850002028054607DB312D05D2781910F8200C29
:1008600008B10643F1E7B00701D526F00406C4F845
:100870001CA00027C4F818A02A2D09D0284606F08D
:100880003DF938B304EB8708303DC8F8185019E03B
:1008900059F8041B204604EB87029161E168884700
:1008A000012F054618D1E069002820DA26F020063D
:1008B0001DE0D8F8180000EB800005EB4000303850
:1008C000C8F818002046E1688847054606F016F982
:1008D0000028EED1012F0AD02E2D08D12046E16844
:1008E00088477F1C0546022F46F02006C4DBA0691E
:1008F000002803DA404246F00106A061F00701D06B
:1009000026F010066C2D0BD0682D09D04C2D39D057
:100910006A2D35D0742D35D07A2D33D016E038E0DD
:10092000E1682F4620468847B842054609D16C2F1A
:1009300026D04FF48060E16806432046884705468C
:1009400004E06C2F1AD04FF4807006430DB3A5F16C
:100950004100192802D8203546F400664A46294647
:10096000204626604E46FFF791FC80B101280BD04F
:10097000F61D26F0070000F1080956E74020E4E7DD
:100980008020D8E70020D6E706F104094DE7284685
:1009900052E7206ABDE8F09F9063000030B5B0F1E7
:1009A0000A0271F100034FEA900E4EEA817EB0EB2D
:1009B0000E0061EB91014FEA101E4EEA017E10EB32
:1009C0000E0041EB11114FEA102E4EEA016E10EBB2
:1009D0000E0041EB11214FEA104E4EEA014E10EB92
:1009E0000E0041EB1141401841F100014FEAD000E7
:1009F00040EA41704FEAD1014FEA810444EA907421
:100A000010EB800544EB01046D1944EB0404521B08
:100A1000A3414FF0000348BF0A3200D530BD401C4F
:100A200041F1000130BD2DE9F0470D46994692464F
:100A3000044600F124080168880604D5E06921F025
:100A40001001216000E00120A84201DD471B00E009
:100A50000027A1697A1902EB0900081AA061207821
:100A6000C00602D42046FFF7E5FC002608E0D4E9E2
:100A700001211AF806009047206A401C761C20626B
:100A80004E45F4DB2078C0060AD52046FFF7D2FC9D
:100A900006E0D4E9012130209047206A401C206202
:100AA000381EA7F10107F4DC07E0D4E9012118F8AA
:100AB00005009047206A401C2062281EA5F1010510
:100AC000F3DC2046FFF7CCFC2078000602D502209C
:100AD000BDE8F0870120FBE72DE9FF4F0C461E46DD
:100AE0004FF0FF378BB0D2E90001DDF860800A904B
:100AF0008A46C1F30A5505B93D46002108464FF024
:100B00000000BAF1000F00F4400005DA00EB8000AD
:100B10004FF4400101EA50004FEA9059B9F1010F3A
:100B200000DDB9460A9850EA4A000ED044F610504B
:100B3000A5F2FF3545432F14B8F1000F1ED07542C2
:100B4000291E1EDDC9F100021CE0B8F1010F4FF0B3
:100B5000000001D0302103E0F24305E02154401CA5
:100B6000B042FBDB30460022002121540B99C1F832
:100B70000880C1E900200FB0BDE8F08FBD1B6D1CDF
:100B8000DEE74A4600DA694206A800F0F3FB06AB4E
:100B900093E8070003AB83E8070050460A9905F085
:100BA000CCFB8DE80700A0F500501F38009003989B
:100BB000002D0ADD42F21F014A460844002303A922
:100BC0000390684605F036FE09E0A0F500504A465D
:100BD0001F38002303A90390684605F040FE8DE806
:100BE00007000004000C03D04FF0FF30410800E084
:100BF0001046B8F1000F03D00022009215461EE007
:100C0000751E05D4FFF7CAFE303262556D1EF9D548
:100C1000B3460122084302D000227F1C04E0207862
:100C2000302801D100227F1E002A099784D01DE0C0
:100C3000112D07DAFFF7B2FE303262556D1C50EA13
:100C40000102F5D1084302D00098C8B10EE000219E
:100C5000681E05E0235C625C63542254401E491CFC
:100C60008142F7DBAB46A81B401E0990002004F828
:100C70000B000B98099AC0F80880C0E9002B7AE7AE
:100C800011264FF0000857E72DE9F04F884604463B
:100C9000D21D22F0070191B0D1E90001CDE90A018E
:100CA00005F014FF02460B98C00F01D02D2007E07D
:100CB0002068810701D52B2002E0202101EAC00035
:100CC000032A099001D0072A05DB03464146204646
:100CD00000F010FB0BE12078800601D5E06900E010
:100CE0000620B8F1650F814606D0B8F1660F18D01E
:100CF000B8F1670F70D131E00020B9F1110F009009
:100D000001DB112301E009F101030AAA01A90CA8E2
:100D1000FFF7E2FEDDE90C70002609F101058346CC
:100D200047E001204B4600904FF000470AAA01A976
:100D30000CA8FFF7D1FEDDE90DB00C995D46002649
:100D400010B909F101000D18B9EB050003D4C0F189
:100D5000FF3609F10105A5EB09002BE0B9F1010F00
:100D600001DA4FF001090020B9F1110F0090484657
:100D700001DD112300E003460AAA01A90CA8FFF730
:100D8000ABFEDDE90C704D46002683462078000757
:100D90000AD4AB4500DA5D4601A8012D04DD4119F6
:100DA00011F8011C302907D04F4502DA17F1040F62
:100DB00004DA012082460FE06D1EEEE7002F02DC10
:100DC000ED1B3E4403E0781CA84200DD7D1CB81BEF
:100DD00000F1010A4FF000472078000703D4AA452C
:100DE00001DB4FF0FF3A0021B7F1004F0DF143084E
:100DF0008DF8431024D002202B23002F01DA7F42EC
:100E00002D230A21021EA0F1010000DC5FB197FB37
:100E1000F1FC97FBF1F201FB1C7C17460CF1300C46
:100E200008F801CDEEE7A8F101000370218809055B
:100E300001D5452100E06521A0F1010800F8011C61
:100E400009980FA9A1EB0807FF1D00B10120411966
:100E500001EBEA70A1693844081A401EA0612078AD
:100E6000C00602D42046FFF7E5FA099828B1D4E974
:100E700001219047206A401C20622078C00622D5BC
:100E80002046FFF7D7FA1EE0002E04DBB34502DD53
:100E900001A8805D00E03020D4E901219047206A5C
:100EA000401C2062761CAAF101005FEA000A0AD108
:100EB00000F01CFAC0680168405CD4E90121904749
:100EC000206A401C2062281EA5F10105DCDC07E039
:100ED000D4E9012118F8010B9047206A401C2062D8
:100EE000381EA7F10107F3DC2046FFF7B9FA03200B
:100EF00011B041E62DE9F04F04460D46D21D22F017
:100F0000070089B0D0E900974846394605F0DEFD74
:100F10000246F80F01D02D2307E02068810701D594
:100F20002B2302E0202101EAC0038DF820300BB111
:100F3000012000E00020032A824601D0072A04DBBA
:100F40002946204600F0D6F93FE12078800601D4FA
:100F50000D2500E0E569C7F30A560D2D49DA002199
:100F60004FEA175B08464FF00000002F00F44000E6
:100F700007DA00EB80004FF4400100EBD07001EA8B
:100F800060008115012901DD4FF0FF3100224FEA99
:100F9000850CBCF1180F06D31346ACF118004FF0C6
:100FA0008052C24003E04FF4801323FA0CF30CF19B
:100FB0000C0CBCF1200F04D3ACF1200C09FA0CF09E
:100FC00001E007FA0CF000294FF0004801DD18B9E4
:100FD0000FE00ED140450CD319EB02095F4121B956
:100FE000404502D19F4329EA0209BBEB175F00D0BD
:100FF000761C2088000502D57B48784402E07A48B8
:101000007844193808AA302302F80A30037C0AF120
:101010000101002E0AF1020A53546A4602DC4FF025
:10102000300101E04FF031014FF001088DF8001060
:1010300002D0A6F2FF3603E059EA470100D06B4E1A
:10104000002D02DC2178090704D54FF002082E217B
:101050008DF80110C44600210BE0C7F303433F01A4
:10106000C35C491C6D1E02F80830052908F101080F
:1010700001DA002DF1DC00210CE000EB1973491CB2
:101080001B786D1E082902F808304FEA091908F18B
:10109000010801DA002DF0DC21688B0602D516E08C
:1010A000A8F10108E04505DD02EB080313F8013C57
:1010B000302BF5D0B8F1000F09DD02EB080313F86F
:1010C000013C2E2B03D1090701D4A8F10108002D02
:1010D00005DD3E2102F808106D1E08F10108407C74
:1010E000002E02F8080008F1010804DA2D207642EB
:1010F00002F8080002E02B2002F808000A214FF451
:101100007A70864208F101080BDB96FBF0F330336E
:1011100002F8083096FBF0F308F1010800FB1366B3
:1011200001E0642E0CDB642096FBF0F3303302F810
:10113000083096FBF0F308F1010800FB136601E0AC
:101140000A2E06DB96FBF1F0303002F8080008F1B9
:10115000010896FBF1F001FB1060303002F8080046
:10116000A16908F1010808EB050202EB0A00081A60
:10117000A0612078C00602D42046FFF75BF9216AFF
:1011800008AE01EB0A00206204E0D4E9012116F860
:10119000010B9047BAF1010AF7D22078C00602D5B8
:1011A0002046FFF747F96E4609E016F8010B3E2886
:1011B0000FD0D4E901219047206A401C2062B8F189
:1011C0000108F2D22046FFF74BF909B00320BDE831
:1011D000F08F206A2844206203E0D4E90121302006
:1011E00090476D1EEBD3F8E7DE5B000002FCFFFFCB
:1011F00010B5436913B1AFF3008001E0FFF753F975
:10120000012010BD127800F124010A7000224A70FA
:101210000122EDE711684FF0FF32E9E710B54369AD
:1012200013B1AFF3008001E0FFF7D6F9012010BD44
:10123000128800F1240182840022C2840122EDE799
:1012400011684FF0FF32E9E72DE9F04116460C46F0
:10125000054600F043F8036893F80101012807D020
:10126000FF2C12D8185D80B101202C70BDE8F081F0
:10127000D3F807013246214603F20713C718284660
:10128000BC46BDE8F041002360474FF0FF30EDE77A
:10129000754600F0EBF8AE4605006946534620F06F
:1012A0000700854618B020B5FFF76AF8BDE8204072
:1012B0004FF000064FF000074FF000084FF0000B12
:1012C000AC46ACE8C009ACE8C009ACE8C009ACE881
:1012D000C00921F007018D467047000010B500F0ED
:1012E00005F8001D10BD00BF5158000000487047B0
:1012F000A80100202DE9F0411F460446032601689D
:10130000072A01F4006004DB08B116A505E016A564
:1013100003E008B115A500E015A521F0100020603C
:10132000A069C01EA0610FB1401EA0612046FFF75A
:1013300081F84FB1D4E9012138469047206A401C1A
:101340002062C01C206206E0206AFAE7D4E901218D
:1013500015F8010B9047761EF8D22046FFF780F86B
:10136000BDE8F0814E414E006E616E00494E460070
:10137000696E66002DE9F047814616468AB0354809
:1013800078440DC88DE80D0032487844801C03ACC9
:101390000DC884E80D0041F69B300844372190FBCE
:1013A000F1F290FBF1F5A5F1800501FB12041B3C65
:1013B00002D56442012000E00020DFF898A08046BA
:1013C0000027FA44AAF1BE0A0EE0E0070AD032462E
:1013D000684607EB470101230AEB810105F03FFA5C
:1013E0008DE8070064107F1C002CEED1194F7F445C
:1013F000AE3F19E0E80715D007EB04100DF1180A0D
:1014000090E80E008AE80E00C068F04201D19819F9
:1014100008903246012306A903A805F020FA03AB81
:1014200083E807006D10641C002DE3D14FF0010329
:1014300032466946B8F1000F03A802D005F0FAF968
:1014400001E005F00CFAC9E90001C9F808200AB06A
:10145000BDE8F087E858000010B50446AFF30080FF
:101460002046BDE81040FEF776BF000000487047F8
:10147000880100200000000030B44FF0013C50F81B
:10148000042B51F8043BCCFA52F4D51A20D1FCB904
:1014900050F8042B51F8043BCCFA52F4D51A17D16A
:1014A000B4B950F8042B51F8043BCCFA52F4D51AD5
:1014B0000ED16CB950F8042B51F8043BCCFA52F41D
:1014C000D51A05D1002CDAD030BC4FF0000070479F
:1014D00029BAB1FA81F111F01801D1F1200084404C
:1014E000F2D1CA40CB4012F0FF0213F0FF0330BC30
:1014F000D01A704701491820ABBEFEE72600020053
:1015000070470000FEE70000002070470020704791
:1015100010B541F22864C2F2000440F62461C2F220
:1015200000012046002203F0C5F840F22461C2F217
:101530000001204603F0B4F8002010BD10B541F2C0
:101540002864C2F200040146204603F0A9F82046B0
:1015500002F0D2FF002010BD0020704710B541F20C
:101560002862C2F20002D2F8BC22D2F81432002B58
:101570001CBF012010BD41F22864C2F200040A46DB
:101580000146204603F096F82046BDE8104003F0DF
:1015900015B9000070470000EFF3108072B600BF6D
:1015A000FEE70000B0B5044600F0ECF8054640F256
:1015B0000000C2F200004068611C18BF044400BF74
:1015C00000F0E0F8401BA042FAD3B0BD2DE9F04F87
:1015D00082B00D68002D00F0CB8041F2004400F194
:1015E0003847C4F6000406224FEAB726A04208BFD7
:1015F0000522052E38BF4FEAB722002401274FF0FD
:10160000000E0026009209E00D68013635FA06F258
:101610000EF1040E04F1020400F0AA8007FA06FBA2
:1016200015EA0B08F0D0D1F804A003220AF0030C4D
:10163000ACF10105A240012D6FEA020910D88268C1
:10164000CD6802EA0902A5402A4382604268CAF3D3
:10165000001522EA0B02B5402A43426006E000BFB3
:10166000BCF1030F02D14FF0030C21E0C2688D687A
:1016700002EA0902A5402A43BCF1020FC26017D159
:101680006FF0030202EA560202440EF01C030F251B
:10169000D2F820C005FA03FA0D692CEA0A0C05FA03
:1016A00003F343EA0C031362D1F804A00AF0030C1D
:1016B00002680CFA04F302EA09021A431AF4403FE2
:1016C0000260A1D041F26003C4F202031A6840F242
:1016D000004942F001021A601A68C4F2010902F0DE
:1016E00001020192019A26F003024FF6084A4A4489
:1016F000CFF6FF7A52F80AC00EF00C050F23009FB8
:10170000AB402CEA030307FA05F52B4342F80A30F5
:10171000D9F808C04B684CEA0805DA0258BF2CEA31
:10172000080540F20C4CC9F80850C4F2010CDCF872
:1017300000209F0242EA080558BF22EA0805CCF8BB
:101740000050D9F804209D0342EA080758BF22EA56
:101750000807C9F80470D9F80020DB0342EA08073B
:1017600058BF22EA0807C9F8007001274CE700BFFC
:1017700002B0BDE8F08F00001823002A08BF28231C
:10178000C150704741F65040C2F2000000687047F7
:1017900040F2000041F65041C2F20000C2F20001E6
:1017A00040680A68104408607047000080B5032054
:1017B00000F08CF80F2000F009F800281CBF012071
:1017C00080BD00F029F8002080BD000070B540F217
:1017D0000006C2F200067168E1B1044640F228003A
:1017E000C2F200004FF47A720068B2FBF1F1B0FB74
:1017F000F1F002F0EBF90F2C4FF0010508D838B9E1
:101800004FF0FF3021460022002500F033F834600D
:10181000284670BD012070BD82B041F25800C4F26C
:101820000200816841F001018160816801F00101DD
:1018300001910199016841F080510160006800F058
:1018400080500090009802B001F012B8002848BF04
:101850007047C1B200F01F00012202FA00F04EF200
:101860000012CEF2000242EAD10121F00301086029
:101870007047000010B54EF60C5CCEF2000CDCF8A0
:101880000030C3F3022E8EF00704042C28BF04247A
:10189000BEF103034FF0FF3E0EFA04F438BF0023FD
:1018A000A14399400EFA03F39A43114300F00F024B
:1018B00000F160430901043A03F5644362440028DF
:1018C00048BF02F10C03197010BD00004EF60C5118
:1018D000CEF200010A684FF6FF031A4060F30A22B5
:1018E00042F0806040F0FD7008607047012201689E
:1018F000C0F8E822002280F8E022B1F8540040F05D
:101900000100A1F85400B1F8540040F00202002098
:10191000A1F854207047000010B50129044613D0E7
:1019200011BBA06948B102F047FC4EF61050CEF250
:101930000000016821F006010160D4F8F002BDE862
:10194000104003F099B900BFD4F8F00203F01AFA7E
:10195000A069002808BF10BD4EF61050CEF200005E
:10196000016841F00601016010BD000080B501F082
:10197000070C0CEB8C0C00EBCC0C01EB810E0CF18A
:10198000280C00EBCE00090658BF00F5B47C0020FF
:10199000002A19BFCCF808300121ACF8063000212C
:1019A0008CF80C1080BD000001EB8102D0F8F03201
:1019B00000EBC200C26B184603F01CB801EB8102B9
:1019C000D0F8F03200EBC200D0F87C21184603F0CA
:1019D00065B8000010B5044648B2B0F1FF3F01F011
:1019E000070000EB800104EBC10205DD02F5B471D4
:1019F000002382F8693104E0012302F1280182F812
:101A0000293094F8A8220870012A04BF022010BDD2
:101A10002068012284F8A82203F0B6FD002084F893
:101A2000A80210BDB0B50446406801F00F02824222
:101A300084BF0120B0BD48B2B0F1FF3F01F0070004
:101A400000EB800104EBC10206DD02F5B471002356
:101A500082F8693105E000BF012302F1280182F814
:101A6000293094F8A8220025012A8D70087004BF3F
:101A70000220B0BD2068012284F8A82203F018FEDD
:101A8000284684F8A852B0BD01F0070101EB81019E
:101A900000EBC100D0F884017047000070B5064625
:101AA00048B2B0F1FF3F01F0070000EB800107DD15
:101AB00006EBC10404F5B471002584F8695106E011
:101AC00006EBC10C01240CF128018CF829404D785B
:101AD0000870002D0A61CB7018BFC881022B04BFAB
:101AE0000020087196F8A802012804BF022070BDEA
:101AF0003068012286F8A82203F032FC002086F824
:101B0000A80270BD10B501F0070C0CEB8C0100EBC6
:101B1000C10E00680EF5B4710024CEF87C21CEF819
:101B20008031CEF884418EF869418EF868C103F0A7
:101B300017FE002010BD000010B54268044601F0F9
:101B40000700904284BF012010BD4AB2B2F1FF3FAE
:101B50000ADD01EB810104EBC10202F5B47100233F
:101B600082F8693109E000BF00EB800104EBC1029B
:101B7000012302F1280182F8293094F8A8320122C9
:101B8000012B8A70087004BF022010BD206884F801
:101B9000A82203F0CBFD002084F8A80210BD0000AD
:101BA00080B501F0070C0CEB8C0100EBC10101F8D2
:101BB00028CF00684FF0010C01F1140781F824C010
:101BC0004FF0000E87E80C400B6281F801C003F073
:101BD000C7FD002080BD00002DE9F04F81B0044614
:101BE000006804F0EBF9010420D4410500F1F6830C
:101BF000410400F10584810400F11C84C10400F15A
:101C00002384010500F14684010600F15984810511
:101C100000F16684C00540F1EF832068B0F84410FD
:101C200021F48071A0F84410E6E300BF2068B0F909
:101C30004410B1F1FF3F00F3DF8304F52C7140F64F
:101C40000F7B009123E000BFB0F8501094F868219A
:101C5000014401EBC201B1F80634B4F86E210099D9
:101C60006FF39F23C4F8843104F0ACF92068018835
:101C700001EA0B0180310180204600F033FD00BFF6
:101C80002068B0F94410B1F1FF3F00F3B583B0F81C
:101C9000442012F00F090DD030F929104FEA490AFB
:101CA000B1F1FF3F1FFA81F832DD5FEA0860E7D546
:101CB0005AE100BF0188D2066CD401EA0B0101F59C
:101CC00000410180B0F8501094F82820084400EB3F
:101CD000C200B0F80204E16B6FF39F206064084417
:101CE000E06320460021FFF75FFE94F824000028FF
:101CF000C6D0206C0028C3D194F82400216840F09D
:101D00008000C0B2A1F84C00002084F82400B7E79E
:101D100030F81A1040F60F7C01EA0B01803120F8F0
:101D20001A1009EB890104EBC10B9BF874110BF538
:101D3000B476002978D09BF86B11022940F0868098
:101D4000B0F850703178DBF8803107440BF5C07281
:101D50005FEA484507EBC10700F19280B7F80674C7
:101D600000256FF39F27DB1B38BF2B46136040F223
:101D70009D805FEA486200F1A98030F8212048F296
:101D8000C00302EA0C021A4320F82120002F40F081
:101D90009E80C3E00A053FF557AF09B2B1F1FF3F9E
:101DA0003FF76EAF018801EA0B0180310180B0F886
:101DB000501094F86821014401EBC201B1F80634D7
:101DC0006FF39F23C4F8843193B1D4F87C1179B1B7
:101DD000B4F86E2104F0F6F8D4F87C01D4F884113C
:101DE0000844C4F87C0120460021FFF7E7FD206885
:101DF000018809053FF544AFB0F85010D4F87831A8
:101E000000F206423F2BC0F00D825F09DE064FF064
:101E1000FF3608BF06EB531748F20003CFF6FF73F7
:101E200043EA87237CE200BFB0F8501032780144C7
:101E300001EBC201B1F806746FF39F27002F6DD03C
:101E4000DBF87C11BBF86E2163E000BF327848F20A
:101E5000C00330F8221001EA0C01194320F82210C7
:101E600030F82230B0F8501000EBC2025B0411448D
:101E700016D4B1F806746FF39F2747BB4EE000BF3E
:101E8000B7F8027400256FF39F27DB1B38BF2B4682
:101E9000136021D95FEA48622DD4B7BB3EE000BF92
:101EA000B1F802746FF39F277FBB37E030F8212031
:101EB00043F60F731A404CF28003A3F500535A40C7
:101EC00020F821205FEA48627FF557AF37B3DBF88F
:101ED0007C11BBF872211CE030F8212043F60F730F
:101EE0001A404CF28003A3F500535A4020F82120F9
:101EF0005FEA4862D1D530F8212048F2C00302EAF7
:101F00000C021A4320F8212047B1DBF87C11BBF802
:101F100070213B4604F056F801E000BF0027DBF8D3
:101F20008411DBE95F0239443844CBF88411CBF8E3
:101F30007C011AB1DBF87801B8420BD93178204620
:101F4000FFF73CFD40F60F7B5FEA08607FF598AE37
:101F50000AE000BF2068314603F002FC40F60F7B28
:101F60005FEA08607FF58CAE206809EB890130F8E4
:101F70001A2004EBC10502EA0B0101F5004120F82B
:101F80001A1095F82B1005F12809022920D15FEAD3
:101F9000C85143D4B0F8502099F80010024402EB25
:101FA000C102B2F802242B6C6FF39F229B1A4FF0F0
:101FB000000738BF3B462B6440F23081E96B6B6C05
:101FC0001144E96399186964494603F0C9FB57E66F
:101FD00095F8341000294FF00001296400F01C81AD
:101FE0005FEA486168D495F82910012900F0FE8065
:101FF000002940F01181B0F8501099F800200844F1
:1020000000EBC200B0F8061421F4F841A0F8061461
:10201000B0F8061441F40041F0E000BFB0F8507091
:1020200099F800102A4652F8406F5FEA486300EBC7
:10203000C10C5BD40CF2064E3EF8077000236FF320
:102040009F27F61B38BF1E46166040F287805FEA66
:10205000484208D430F821204CF2800302EA0B02F7
:102060001A4320F821202A4612F84C1F012940F07B
:10207000A4812B4653F8488F53E904C153F8046CEC
:1020800039443E44E04543F80C1C43F8046C80F0AE
:102090000181B8F1000F00F055810027C4461F6090
:1020A000177095F82920012A40F0FC80B0F85020E4
:1020B0002EF802C06EE100BF95F82910012900F04A
:1020C000A180002940F0A880B0F8501099F80020B5
:1020D000084400EBC200B0F8021421F4F841A0F863
:1020E0000214B0F8021441F4004193E00CF2024EE5
:1020F0003EF8077000236FF39F27F61B38BF1E467C
:1021000016604FD95FEA484208D530F821204CF2DA
:10211000800302EA0B021A4320F821202B4613F811
:102120004C1F012940F049812A4652F848CF52E914
:10213000046152F8048C3944B844B44542F80C1C8C
:1021400042F8048C80F0C4804FF00008BCF1000F0E
:1021500083F8008040F0BF80BC46BEE095F829209F
:10216000012A67D0002A6FD1B0F850206244B2F83B
:10217000023423F4F843A2F80234B2F8023443F4F0
:102180000043A2F80234B0F850003EF8002022F4D8
:10219000F8422EF800203EF8002042F400422EF8CB
:1021A000002051E095F82920012A55D0002A5DD160
:1021B000B0F850203EF8027027F4F8472EF802706D
:1021C0003EF8027047F400472EF80270B0F8500055
:1021D0006044B0F8062422F4F842A0F80624B0F8CF
:1021E000062442F40042A0F806243FE0B0F8501064
:1021F00099F80020084400EBC2000021A0F8061462
:102200000AE000BFB0F8501099F80020084400EB35
:10221000C2000021A0F8021499F800102046FFF730
:10222000C3FB2DE5002B71D003F0010707EB53032F
:102230009B0275E0B0F8502000236244A2F80234FB
:10224000B0F850002EF800302046FFF7ADFB5FEAF3
:10225000484012D5B1E000BFB0F8502000232EF85E
:102260000230B0F850006044A0F806342046FFF772
:102270009BFB5FEA484040F1A080206899F800107D
:102280004CF2800330F8212002EA0B021A4320F8B6
:10229000212092E0A8EB0C021A6095F82920012A6F
:1022A0003FF404AF002A75D1B0F85070BCF13F0F75
:1022B00050D35FEACC634FEA5C124FF0FF3308BFA4
:1022C00003EB5C124FF4004343EA822260E000BF5C
:1022D000ACEB0608B446C2F8008095F82920012A24
:1022E0002AD0002A64D1B0F85070BCF13F0F3BD324
:1022F0005FEACC634FEA5C124FF0FF3308BF03EB99
:102300005C124FF4004343EA82224FE08B5A48F2BA
:10231000000723F4F8438B528B5ACFF6FF773B43E9
:102320008B52018843F60F7211404CF28002A2F5E5
:10233000805251400180A3E4B0F850202EF802C032
:1023400036E000BF00231370BC4695F82920012A0F
:10235000A8D1ABE6BCF1000F10D00CF0010202EBEB
:102360005C02920214E000BFBCF1000F14D00CF02C
:10237000010202EB5C02920218E000BF37F80E2067
:1023800022F4F84227F80E2037F80E2042F40042DB
:1023900027F80E206A8E0CE037F80E2022F4F8425F
:1023A00027F80E2037F80E2042F4004227F80E20BE
:1023B0002A8E1FFA8CF303F05BFE206899F8001058
:1023C00040F63F7330F821201A4048F2C003103B1A
:1023D0005A4020F82120FFF753BC00BF2068B0F816
:1023E000441021F48061A0F84410204600F03CF92C
:1023F00094F8A80201280DD101B0BDE8F08F00BF0C
:102400002068B0F8441021F48041A0F8441001B0D5
:10241000BDE8F08F0120002584F8A80284F824503C
:102420002068002103F01CFE84F8A85201B0BDE82A
:10243000F08F00BF2068B0F8441021F40051A0F8DC
:10244000441001B0BDE8F08F2068B0F8401021F0D2
:102450000401A0F84010B0F8401021F00801A0F8E5
:10246000401094F8E002012806D1002084F8E00230
:1024700020460021FFF750FA204600F007F92068B7
:10248000B0F8441021F48051A0F8441001B0BDE828
:10249000F08F00BF2168B1F8400040F00800A1F8BB
:1024A0004000B1F8440020F40060A1F84400B1F805
:1024B000400040F004022046A1F840200BE000BF9D
:1024C0002068B0F8441021F08001A0F8441094F87E
:1024D000E01299B1204601B0BDE8F04F00F020B9FC
:1024E0002168B1F8440020F400722046A1F844208D
:1024F00001B0BDE8F04F00F0DDB800BFB0F840100B
:1025000041F00401A0F84010B0F8401041F008017B
:10251000A0F84010012184F8E012B0F854003C21EA
:1025200001EA900220460121C4F8E42201B0BDE88E
:10253000F04FFFF7F1B90000F0B585B000285BD08F
:10254000054690F8A90228B9002085F8A802284677
:1025500000F056F8032085F8A902286803F09EF8D9
:10256000696869B300204FF0010C0022002300BF0E
:1025700002EB820205EBC20484F82830DAB20133A0
:10258000E286DAB2914284F829C084F82B00C4E9CB
:102590000E002064ECD800200023002203EB83030C
:1025A00005EBC30484F868210132D3B2994284F860
:1025B000690184F86B01C4E95E00C4F88001EDD8BC
:1025C00005F1080E28689EE81C50D5E907678DE8DC
:1025D0001050CDE9036703F053F80020012185F87E
:1025E000240085F8A912E969012903D12846FFF7DB
:1025F0007DF9002005B0F0BD012005B0F0BD000060
:1026000010B596B0044601A804305021FDF7E8FE4D
:10261000206845F60041C4F20001884202D016B09D
:1026200010BD00BF4FF40050019001A800F02AF93E
:10263000002818BFFEF7B0FF41F25800C4F20200B4
:102640000168002241F4000101600068002100F4EB
:102650000000009000981420FFF70CF91420FFF7F9
:10266000F5F816B010BD000010B5044680680228C9
:1026700018BFFEF791FFD4F8F002012102F016FB1B
:10268000D4F8F002BDE8104002F0C2BA10B504461A
:10269000806948B14EF61050CEF20000016821F07A
:1026A0000601016001F088FDD4F8F002BDE8104099
:1026B00002F0E2BAD0F8F00202F0E8BA10B504462F
:1026C00090F8A802012804BF022010BD012084F860
:1026D000A80284F82410206803F0C2FC002084F8CB
:1026E000A80210BDD0F8F02200F52C71104602F0BF
:1026F000F3BA000010B5044690F8A802012804BF00
:10270000022010BD2068012184F8A81203F046FCC5
:10271000206802F0ABFF002084F8A80210BD000082
:1027200010B50446D0F8F00202F02CFBA069002896
:1027300008BF10BD4EF61050CEF20000016841F007
:102740000601016010BD0000B0F5007F42D00028F6
:1027500040F0808047F21400C4F2000050F8141CCE
:10276000C26E01F4C06122F48072B1F5806FC2665E
:102770002ED150F8141C012262F34A2140F8141C97
:1027800040F22801C2F200010968322251434DF69D
:102790008362C4F21B32A1FB0212910C0268520543
:1027A00011D54A1C0FD0026852050CD559B10268E8
:1027B000520508D5012906D00268520503D5022921
:1027C000A1F10401EAD10068400544BF032070472D
:1027D0000020704747F21400C4F2000050F8141CA7
:1027E000C26E01F4C06142F48072B1F5806FC266BE
:1027F000EED150F8141C012262F34A2140F8141C57
:1028000040F22801C2F200010968322251434DF61C
:102810008362C4F21B32A1FB0212910C02685205C2
:1028200011D54A1C0FD0026852050CD559B1026867
:10283000520508D5012906D00268520503D50229A0
:10284000A1F10401EAD10068400544BF03207047AC
:10285000BEE700BF47F21400C4F2000050F8141C99
:10286000022262F34A2140F8141C00207047000045
:1028700047F20800C4F20000016841F480410160A1
:10288000704700002DE9F04182B00446807841F2A3
:1028900088060007C4F2020602D400202FE000BF21
:1028A00056F8300C10F080580BD156F8300C40F030
:1028B000805046F8300C56F8300C00F080500190F3
:1028C000019847F20007C4F20007386840F48070AE
:1028D0003860FEF757FF05463868C00500F10C81E7
:1028E000FEF750FF401B0228F6D90320B8F1000F75
:1028F00005D156F8301C21F0805146F8301C216873
:10290000CA0717D18A071DD44A0723D40A0729D436
:10291000CA062FD48A0635D44A063BD40A0641D4C7
:10292000CA0547D48A034DD48A0553D44A0559D4DD
:1029300067E000BF3268636822F003021A43326026
:102940008A07E1D53268A36822F00C021A4332608C
:102950004A07DBD53268E36822F030021A4332605E
:102960000A07D5D53268236922F0C0021A433260C3
:10297000CA06CFD53268636922F440721A433260C6
:102980008A06C9D53268A36922F440621A433260CC
:102990004A06C3D53268E36922F440521A433260D2
:1029A0000A06BDD53268236A22F440421A433260D7
:1029B000CA05B7D53268636A22F440321A433260DE
:1029C0008A03B1D57269A36A22F003021A437261C5
:1029D0008A05ABD53268E36A22F440221A4332609A
:1029E0004A050ED53268236B22F440121A43B3F520
:1029F000801F326005D156F87C2C42F4801246F8D4
:102A00007C2C0A050ED53268636B22F440021A430F
:102A1000B3F5800F326005D156F87C2C42F4801259
:102A200046F87C2CCA040ED53268A36B22F04072A3
:102A30001A43B3F1807F326005D156F87C2C42F402
:102A4000801246F87C2C8A040ED53268E36B22F0A3
:102A500040621A43B3F1006F326005D156F87C2C06
:102A600042F4801246F87C2C4A040ED53268236C5E
:102A700022F040621A43B3F1006F326005D156F87C
:102A80007C2C42F4801246F87C2C0A040ED5326865
:102A9000636C22F040521A43B3F1805F326005D17B
:102AA00056F87C2C42F4803246F87C2CCA030ED5B2
:102AB0003268A36C22F040421A43B3F1804F326077
:102AC00005D156F87C2C42F4803246F87C2C490320
:102AD0000ED57169E26C21F440111143B2F5001F6B
:102AE000716105D156F87C1C41F4801146F87C1CBC
:102AF00002B0BDE8F08100BFB06810F4407010D0A3
:102B0000216D88420BD0B068B16820F4407041F468
:102B10008031B160B16821F48031B160B060C0072C
:102B20000CD1B068216D20F440700843B0600020E3
:102B3000B8F1000F7FF4E3AEDBE600BFFEF722FE44
:102B4000054641F2883700BFB0688007E9D4FEF738
:102B500019FE401BB842F7D9C7E600002DE9F0473F
:102B600000286DD042F2000AC4F2020A0446DAF8E4
:102B700000000D4600F00F0088420CD2DAF8000089
:102B800020F00F002843CAF80000DAF8000000F037
:102B90000F00A84254D1216841F20808C807C4F2C6
:102BA000020803D1880740F1D880BDE060680228A0
:102BB0003AD0032840D158F8082C920140D5D8F8D3
:102BC0000420D8F8043042F20046C3F3031302F0A5
:102BD0000302D8F804700133C0F2F406032A04BFDC
:102BE00041F20026C0F27A06B6FBF3F2D8F80430C0
:102BF000C7F306277A43C3F34163022707EB430376
:102C0000B2FBF3F24BF20043C0F2C4439A4261D9E3
:102C1000D8F8002012F0F00F51D089075AD5A168DA
:102C2000002957D14BE000BF58F8081C89035CBF4E
:102C30000120BDE8F08707E058F8081C490503D4D7
:102C40000120BDE8F08700BFD8F8001001F00C01AA
:102C500004293FD0D8F8001001F00C01082939D020
:102C6000D8F8001001F00C010C2933D1D8F8041069
:102C7000D8F8042042F20047C2F3031201F0030126
:102C8000D8F804300132C0F2F407032904BF41F23E
:102C90000027C0F27A07B7FBF2F1D8F80420C3F39B
:102CA00006235943C2F34162022303EB4202B1FB04
:102CB000F2F14BF20042C0F2C44291420AD9D8F874
:102CC0000010082262F307114FF00109C8F8001044
:102CD00002E000BF4FF00009D8F8001021F0030116
:102CE0000843C8F80000FEF74DFD064641F288375C
:102CF000D8F80000616800F00C00B0EB810F07D03D
:102D0000FEF740FD801BB842F2D90320BDE8F087F2
:102D10002168880708D4B9F1000F1ED0D8F8000048
:102D200020F0F00017E000BF480705D5D8F80000F4
:102D300040F4E060C8F80000080706D5D8F80000A5
:102D4000072262F30D20C8F80000D8F80000A2683E
:102D500020F0F0001043C8F80000DAF8000000F09E
:102D60000F00A8421BD9DAF8000020F00F0028431A
:102D7000CAF80000FEF706FD064641F2883700BF9C
:102D8000DAF8000000F00F00A84207D0FEF7FAFCC6
:102D9000801BB842F4D90320BDE8F08721684807BA
:102DA00007D5D8F80000E26820F4E0601043C8F8C6
:102DB0000000080708D5D8F80000216920F4605009
:102DC00040EAC100C8F80000D8F8000042F2004113
:102DD000C0F2F40100F00C00042808462DD0D8F809
:102DE000000000F00C00082841F20020C0F27A0038
:102DF00023D0D8F8002002F00C020C2A1CD1D8F8FD
:102E00000420D8F8043002F00302C3F30313D8F807
:102E100004700133032A08BF0146B1FBF3F0D8F870
:102E20000410C7F30627C1F341610222784302EB85
:102E30004101B0FBF1F000E00020D8F8001046F6A8
:102E40008442C1F30311C0F60002515C40F2280233
:102E500001F01F0120FA01F140F20000C2F200006F
:102E60000068C2F200021160BDE8F047FEF7AEBC98
:102E70002DE9F04182B0002800F006810446007878
:102E800041F20006C007C4F2020655D1207880073F
:102E900074D42078000700F197802078400700F173
:102EA000B7802078800600F10781E069002840D0D3
:102EB000B16801F00C010C2940F05681012800F0A6
:102EC000E380F068216A00F003028A4240F0DC806F
:102ED000626A6FF00F0300F0F00103EB02129142FF
:102EE00040F0D280A16A00F4FE42B2EB012F40F024
:102EF000CB80E16A00F07842B2EBC16F40F0C48051
:102F0000226B0023CFF6E07303EA025200F4C00103
:102F1000A2F50012914240F0B780616B4FF07E4203
:102F200002EA016100F0C06001F17E41884240F098
:102F3000AB800020F1E100BFB06800F00C01F06848
:102F400008295BD0032281F00C0122EA000008442A
:102F5000B0FA80F0400951D16068B0F5803F07D0E9
:102F6000B0F5A02F40F0D680306840F4802030606B
:102F7000306840F480303060D7E000BFB068F1685E
:102F800000F00C00042869D001F0030180F00C006F
:102F900081F002010844B0FA80F040095ED1E16896
:102FA0003068002900F0CE8040F480703060FEF779
:102FB000E9FB05463068400500F1EC80FEF7E2FBD6
:102FC000401B0228F6D920E16169D6F89400002957
:102FD00000F08C8040F00100C6F89400FEF7D2FBB0
:102FE000054600BFD6F8940080073FF556AFFEF7C0
:102FF000C9FB401B0228F5D907E100BF30688003F8
:103000007FF544AF606800287FF440AF3CE000BF2C
:10301000B06D10F0805808D1B06D40F08050B065B0
:10302000B06D00F080500190019847F20007C4F2A3
:1030300000073868C0052BD4386840F480703860C9
:10304000FEF7A0FB054600BF3868C00520D4FEF798
:1030500099FB401B0228F7D9D7E000BF3068400534
:1030600001D5E06880B17068216920F0FE4040EA37
:103070000160706040F20000C2F200000068FEF7DC
:10308000A5FB00283FF405AF012002B0BDE8F081A8
:10309000A068012808D0052840F09A80D6F8900052
:1030A00040F00400C6F89000D6F8900040F001000F
:1030B000C6F890009AE000BFA169D6F898000029F0
:1030C00070D040F00100C6F89800FEF75BFB0546A3
:1030D000D6F8980080073FF5E8AEFEF753FB401B9B
:1030E00002284FF00300F3D917E100BF20F00100E0
:1030F000C6F89400FEF746FB054600BFD6F89400DC
:1031000080077FF5CAAEFEF73DFB401B0228F5D9CC
:103110007BE000BF3168002821F4803131603168E4
:1031200021F48021316000F08F80FEF72BFB0546F3
:10313000306880033FF5AAAEFEF724FB401B6428ED
:10314000F6D962E020F480703060FEF71BFB054684
:10315000306840057FF59DAEFEF714FB401B02284A
:103160004FF00300F4D9D8E03168022821F08071D3
:1031700031604FD1FEF706FB054600BF3068800185
:1031800040F18E80FEF7FEFA401B02284FF003004C
:10319000F4D9C2E07068216920F0FE4040EA016085
:1031A000706076E620F00100C6F89800FEF7EAFAB3
:1031B000054600BFD6F8980080077FF576AEFEF78B
:1031C000E1FA401B02284FF00300F3D9A5E000BF4D
:1031D000D6F89010002821F00101C6F89010D6F81A
:1031E000901021F00401C6F890103DD0FEF7CAFA05
:1031F000054641F2883700BFD6F89000800745D4D5
:10320000FEF7C0FA401BB842F6D9032002B0BDE871
:10321000F08100BFF0684FF6FF7120F00300F0600E
:10322000F068CFF6EE610840F060FEF7ABFA0446B6
:10323000306880017FF57DAEFEF7A4FA001B0228FE
:103240004FF00300F4D968E0FEF79CFA054600BF92
:10325000306880037FF51AAEFEF794FA401B6428AD
:103260004FF00300F4D958E0FEF78CFA054641F21E
:10327000883700BFD6F89000800707D5FEF782FA9E
:10328000401BB8424FF00300F4D946E0B8F1000FFC
:103290007FF407AEB06D20F08050B06501E600BF4E
:1032A000F06848F20C01C0F29F1104F1200700EA17
:1032B000010C8ECF6FF00F00D4E90C5400EB02101C
:1032C0000022CFF6E07241EA0C0102EA05520843FF
:1032D000A2F500124FF07E4540EA032005EA04659E
:1032E000104305F17E4540EAC7602843F06030682E
:1032F00040F080703060F06840F08070F060FEF761
:1033000041FA0446306880013FF513AEFEF73AFA01
:10331000001B02284FF00300F4D902B0BDE8F08191
:10332000002804BF01207047B0B50446406A28B1A8
:103330000020206104F1140006E000BF6068B0F5D1
:10334000827F03D004F11C00002101600025A562EA
:1033500094F85D0020B9204684F85C5000F052F8E3
:10336000022084F85D002068D4F80CE00268BEF505
:10337000E06F22F0400202604EF4006298BF012527
:10338000B2F5706F1CBF0023A3624FEA053CD4E97D
:103390000135D4E9042103F4827305F404452B4478
:1033A00002F002021A44A36901F00101E569114427
:1033B00003F40072114405F03802256A114405F047
:1033C0008002A56A114405F40052114301600421F2
:1033D000626A0EF4706501EA1341636B45EA0C05FD
:1033E00002F01002294303F008031143194341601E
:1033F000C16921F40061C16100200121206684F8C7
:103400005D10B0BD80B586B0006843F20001C4F223
:103410000101884202D006B080BD00BF41F24C00DD
:10342000C4F20200416941F480514161416901F4F3
:10343000805101910199016841F00101016000682A
:1034400001A900F0010001900198E0200190022004
:1034500002900020CDE90300052005904FF0904038
:10346000FEF7B4F806B080BD2DE9F04381B0044604
:1034700040681D461746B0F5827F0E4602D1A0680F
:10348000002847D094F85C00012803D1022001B045
:10349000BDE8F0834FF0010984F85C90FEF772F903
:1034A00094F85D10012933D18046002E4FF00100C1
:1034B00018BF002F00F0EE80042084F85D0000208B
:1034C00020662664A4F84470A4F84670A063A08720
:1034D000E0872168C4E91300D4E902204B68B0F505
:1034E000E06F23F4805398BF03F58053B2F5004F8B
:1034F0004B6051D00A68520659D5B4F84610B0F561
:10350000E06F5DD8002900F09080681C1FD12FE08B
:103510000220BFE0042084F85D0020463146324698
:103520003B46009500F0E0F901B0BDE8F08300BF34
:10353000007B216C0870206C01302064B4F84600D8
:103540000138A4F84600B4F8460000286DD0206881
:103550008168C907ECD1FEF715F9A0EB0800A84275
:10356000F1D348E0FEF70EF9B4F8460000285CD02D
:1035700020688168C907F5D0007B216C0870206C39
:1035800001302064B4F846000138A4F84600B4F8CD
:1035900046000028ECD148E00A6822F040020A60A8
:1035A0000A6822F480420A600A685206A5D40A68B2
:1035B00042F040020A60B4F84610B0F5E06FA1D9BD
:1035C00099B3681C0DD11EE0C068216C21F8020B74
:1035D0002164B4F846000138A4F84600B4F8460067
:1035E00018B320688168C907EED1FEF7CBF8A0EBCD
:1035F0000800A842F2D303204CE000BFFEF7C2F857
:10360000B4F8460088B120688168C907F6D0C06860
:10361000216C21F8020B2164B4F846000138A4F8AB
:103620004600B4F846000028EDD16068B0F5827F0E
:103630000BD1A068B0F5004F02D0B0F5806F04D177
:103640002068016821F04001016020462946424679
:1036500000F046FD30B1206E40F0200020662020B2
:10366000206613E06068B0F5827F0FD1A068B0F5E6
:10367000004F02D0B0F5806F08D120464FF4C061F2
:103680002A46434600F068FC0028E4D1206E00285A
:1036900018BF0120002184F85D9084F85C1001B00F
:1036A000BDE8F0832DE9F04381B0044690F85C005A
:1036B000012803D1022001B0BDE8F0834FF00109D9
:1036C0001D4616460F4684F85C90FEF75BF894F8AA
:1036D0005D10012946D18046002F4FF0010018BF30
:1036E000002E00F0D7800320002184F85D002166C1
:1036F000A763A687E6872164A4F84410A4F84610BF
:10370000A068E164B0F5004F2068216507D1016829
:1037100021F040010160016841F4804101600168CD
:10372000490603D4016841F0400101606168731EDD
:10373000E268B1FA81F1B3FA83F349095B09B2F5A2
:10374000E06F41EA03013DD931B137F8021BC16096
:10375000A763E08F0138E087E08F002870D0681CF5
:103760000DD11EE0022095E0A16B31F8022BC26062
:10377000A163E08F0138E087E08F002860D02068E7
:1037800081688907F0D4FDF7FDFFA0EB0800A8428F
:10379000F2D303207EE000BFFDF7F4FFE08F0028A6
:1037A0004ED0206881688907F6D5A16B31F8022BCD
:1037B000C260A163E08F0138E087E08F0028F0D17C
:1037C0003EE000BF89B1E18F02294FF6FE7103D3BD
:1037D00037F8022BC26004E03A7801310273A06B23
:1037E000471CA763E08F0844E087E08F40B3681C64
:1037F0005DD04FF6FE70461C08E000BFFDF7C2FF2B
:10380000A0EB0800A8426DD2E08FC8B1216888689B
:103810008007F3D5E28FA06B022A05D330F8022B84
:10382000CA604FF6FE7104E000780873A06B314661
:103830000130A063E08F0844E087E08F0028E5D1E5
:1038400020464FF4C0512A46434600F085FB68B934
:1038500020462946424600F043FC38B920464FF442
:10386000C0612A46434600F077FB28B1206E40F045
:103870002000206620202066A06838B90020009033
:103880002068C1680091806800900098206E002830
:1038900018BF0120002184F85D9084F85C1001B00D
:1038A000BDE8F083FDF76EFFE08F0028C8D02068E8
:1038B00081688907F6D5E28FA16B012A08D931F812
:1038C000022BC260A163E08F0238E087ECE700BF03
:1038D00009780173A06B0130A063E08F0138E087A5
:1038E000E2E700BF0320D5E72DE9F04381B00446AD
:1038F00090F85C00012803D1022001B0BDE8F083FC
:1039000001201E4615460F4684F85C00FDF73AFF7D
:1039100094F85D108146012940F0B080002F4FF0EF
:10392000010018BF002D00F04681002E00F04381F9
:1039300094F85D0004281CBF052084F85D00002079
:1039400020662564A4F84660A4F84460A763E6876F
:10395000C4E913002068A687E1684268B1F5E06F0A
:1039600022F48052134698BF03F58053012E88BF7E
:10397000134643600268520603D4026842F04002D4
:1039800002606268731EB2FA82F2B3FA83F3DDF862
:10399000208052095B09B1F5E06F43EA02017DD94D
:1039A00031B137F8021BC160A763E08F0138E087AF
:1039B000012518F1010035D102E000BFFDF7E2FE5C
:1039C000E08F20B9B4F84600002800F0D7802068C6
:1039D000816889070CD5E18F51B1012D08D1A16B08
:1039E000002531F8022BC260A163E18F0139E18724
:1039F0008168C907E2D0B4F846100029DED0C0685B
:103A0000216C012521F8020B2164B4F8460001382D
:103A1000A4F84600D2E700BFFDF7B4FEA0EB090012
:103A2000404545D2E08F20B9B4F84600002800F0A8
:103A3000A5802068816889070CD5E18F51B1012DDF
:103A400008D1A16B002531F8022BC260A163E18F80
:103A50000139E1878168C907DED0B4F84610002932
:103A6000DAD0C068216C012521F8020B2164B4F87A
:103A700046000138A4F84600CEE700BF6068B0F504
:103A8000827F09D1A06800284FF0020008BF0429F6
:103A900040F0918042E700BF02208CE099B1E18FB5
:103AA00002294FF6FE7105D337F8022BC26006E0FB
:103AB000032080E03A7801310273A06B471CA763B2
:103AC000E08F0844E087012608F10105E08F18B96E
:103AD000B4F84600002851D020688168890719D5BC
:103AE000E18FB9B1012E15D1E28FA16B022A07D364
:103AF00031F8022BC260A163E18F023908E000BFF8
:103B000009780173A16B20680131A163E18F01394C
:103B10000026E1878168C90726D0B4F8461019B39A
:103B2000B4F84610022913D3C168226C22F8021B94
:103B30002264B4F846100239A4F84610B4F84610CE
:103B4000012910D8416841F4805141600BE000BF69
:103B5000007B216C0870206C01302064B4F84600B2
:103B60000138A4F846000126FDF70CFE002DADD06B
:103B7000A0EB09004045A9D303201CE020464FF4E8
:103B8000C05142464B4600F0E7F968B9204641462D
:103B90004A4600F0A5FA38B920464FF4C0614246C3
:103BA0004B4600F0D9F978B1206E40F02000206635
:103BB000202020660120012184F85D10002184F876
:103BC0005C1001B0BDE8F0830020F4E7411E002046
:103BD000B0EB116F1CBF012070474EF21002CEF205
:103BE000000251604EF62351CEF20001F0230B701B
:103BF0000721906011607047FEE7000070B582B049
:103C000002F07AFA80200DF107048DF807000020F9
:103C1000214601220025012602F09AFA642002F0D2
:103C20006BFB0020214601228DF8075002F090FA2C
:103C30006B20214601228DF8075002F089FA1B20E3
:103C4000214601228DF8076002F082FA1C202146ED
:103C500001228DF8076002F07BFA8DF8075000BF53
:103C600075202146012202F049FA9DF807007028CC
:103C7000F6D102B070BD0000B0B584B00C46054668
:103C80000DF102013B200E2202F038FABDF80A00C5
:103C90009FED4A1A40BA00EE100ABDF80C00B8EECB
:103CA000C00A40BA03EE100ABDF80E009FED442A88
:103CB00040BA04EE100AB8EEC33AB8EEC44A40F275
:103CC000E81020EE010A23EE013A24EE014AC2F286
:103CD000000020EE020A23EE023A24EE022A90EDC2
:103CE000004AB6EE005A20EE050A24EE054A34EEEC
:103CF000000A85ED000ABDF8021090ED014AC9BA2C
:103D000023EE053A24EE054A80ED000A00EE101A73
:103D1000BDF8041034EE033A85ED013AC9BA90EDCE
:103D2000024A80ED013A03EE101ABDF8061022EEA9
:103D3000052A24EE054AC9BA34EE022A04EE101A06
:103D4000B8EEC00AB8EEC33AB8EEC44A85ED022A0E
:103D500080ED022A20EE010AB1EE002A23EE013A9C
:103D600024EE011A20EE020A23EE023A21EE021A94
:103D700090ED032A20EE050A22EE052A32EE000A13
:103D800084ED000A90ED042A23EE053A22EE052A7E
:103D900032EE032A84ED012A90ED053A21EE051A50
:103DA00023EE053A33EE011A84ED021A80ED030A80
:103DB00080ED042A80ED051A04B0B0BD0000003883
:103DC0000000FA432DE9F04786B0002741F24C008D
:103DD0000597C4F20200016840F2004A41F0040174
:103DE00001600168C4F6000A01F004010091009925
:103DF00001680AF5806541F0010101600168002257
:103E000001F001010091009901684FF4804641F0F2
:103E10000201016000684FF4804100F00200009050
:103E200000982846FDF7A8FC4FF090401021002292
:103E30004FF01008FDF7A0FC50464FF4E04100227F
:103E40004FF4E049FDF798FC019601AE01242846A5
:103E50003146CDE902470497FDF7B8FB4FF090409B
:103E60003146CDE90184CDE90377FDF7AFFB50463C
:103E70003146CDE90194CDE90377FDF7A7FB06B004
:103E8000BDE8F08770B541F6EC3043F20001C2F2B4
:103E90000000C4F201014FF4827200234FF4E06C81
:103EA0004FF0020E012480E80E5000F114014FF48F
:103EB0000075382670C10721C0E90833C0E90A310E
:103EC000C0E90C33FFF72CFA002808BF70BDBDE82D
:103ED0007040FDF761BB000080B541F2286040F200
:103EE0000801C2F20000C2F20001002200F048FD09
:103EF000002818BFFDF750FB41F2286040F22C016A
:103F0000C2F20000C2F2000100F064FF002818BFF6
:103F1000FDF742FB41F2286040F25011C2F200006E
:103F2000C2F2000100F0FEFA002818BFFDF734FBD2
:103F300041F22860C2F2000000F06CFF002808BFC8
:103F400080BDBDE88040FDF727BB0000FEE7000014
:103F5000FEE70000704700002DE9F04782B0002620
:103F60001F4690460D4681468DF80360FDF70AFC1A
:103F7000381A00EB0807FDF705FC40F22801C2F2F1
:103F80000001096823225143090DD9F80040794303
:103F90000191A168294271D0824618F1010037D001
:103FA000B5F5C06F1CD100BF207B8DF803009DF8D4
:103FB0000300FDF7E7FBA0EB0A00B84262D20198CC
:103FC00001990028A1F101010191D9F80010896837
:103FD00008BF074611F4C06FE6D100264EE000BFCF
:103FE000FDF7D0FBA0EB0A00B8424BD20198019933
:103FF0000028A1F101010191D9F80010896808BFDA
:1040000007462942ECD10026304602B0BDE8F087D1
:104010000026B5F5C06F25D1207B8DF803009DF8F3
:104020000300A06810F4C06FEDD0207B8DF8030072
:104030009DF80300A06810F4C06FE4D0207B8DF8D9
:1040400003009DF80300A06810F4C06FDBD0207B54
:104050008DF803009DF80300A06810F4C06FDBD159
:104060000CE000BFA0682842CDD0A0682842CAD08A
:10407000A0682842C7D0A0682842F3D1304602B0D9
:10408000BDE8F087D9E900014268B1F5827F22F0EE
:10409000E00242600BD1D9F80810B1F5004F02D010
:1040A000B1F5806F03D1016821F040010160D9F8BA
:1040B0002810B1F5005F07D1016821F400510160BB
:1040C000016841F400510160012089F85D00002081
:1040D00089F85C000326304602B0BDE8F087000096
:1040E000F0B581B015460E460446FDF74BFB281A85
:1040F0008719FDF747FB40F22801C2F20001096869
:10410000C1F3CB317943009121688A68120622D528
:104110000546701C15D000BFFDF734FB401BB842AC
:104120001CD2009800990028A1F10101009121689A
:10413000896808BF07460806EED40CE088680006C8
:1041400009D58868000606D58868000644BF8868D7
:104150005FEA0060F2D4002001B0F0BDD4E90001B4
:104160004268B1F5827F22F0E00242600AD1A16884
:10417000B1F5004F02D0B1F5806F03D1016821F095
:1041800040010160A16AB1F5005F07D1016821F427
:1041900000510160016841F400510160012084F880
:1041A0005D00002084F85C00032001B0F0BD000039
:1041B00070470000FDF7ECBA10B594B00024002061
:1041C0000B94CDE90944CDE90744FEF7BDFA22205E
:1041D00006904FF48070099040200A90012004213D
:1041E0000C9002200F915521CDE90D00CDE9101062
:1041F000CDE9120006A8FEF73BFE28B1EFF31080D0
:1042000072B600BFFEE700BF0F2001900320CDE98A
:10421000020401A80421CDE90444FEF79FFC28B163
:10422000EFF3108072B600BFFEE700BF14B010BD00
:104230004EF68850CEF20000016841F47001016032
:104240007047000010B540F20424C2F200040A4690
:1042500002A0214600F026FB204610BD4344432027
:10426000436F6E666967000010B5D0F8BC323BB38F
:104270008E4601EB810100EB810151F8184F64B1CA
:10428000D0F8C4C20EEB8E020CEBC202D2F838C0DA
:10429000B4FBFCF202FB1C42A2B10024C3F814429E
:1042A000D0F8C002D0F810C0BCF1000F06D0D3F88F
:1042B000080203F504717246E0470024204610BD51
:1042C000032010BD00240C6071460022002300F082
:1042D00063FD204610BD0000B0B5D0F8BC527DB1E2
:1042E000044600F013FCD4F8C02205F50371D3682E
:1042F000D5F80422C5F80C02104698470020B0BD3E
:104300000320B0BDB0B58121044600F061FB00255B
:1043100020460121258700F05BFB20468221A4F87E
:10432000785100F055FBD4F8BC02E56448B1D4F8EC
:10433000C00240688047D4F8BC0201F009F8C4F814
:10434000BC520020B0BD000040F2EC001222C2F2CC
:1043500000000A807047000010B5D0F8BC428CB154
:10436000D0F8C01281B194F80002FF280CD08B68FD
:1043700094F8012221469847FF2084F8000200208B
:1043800010BD00BF032010BD002010BD014640F24B
:1043900000100A22C2F200000A807047014640F273
:1043A00064004322C2F200000A807047014640F2D6
:1043B000A8004322C2F200000A807047014640F282
:1043C0000C104322C2F200000A807047F0B581B0A1
:1043D00004464FF4077000F0BDFFE8B30546C4F88B
:1043E000BC02207C4026002808BF4FF400762046FF
:1043F00081210222334600F0E5FB012720460121FE
:1044000002223346278700F0DDFB1020A4F84E007F
:104410002046822103220823A4F8787100F0D2FB01
:10442000D4F8C002A4F84C70006880470020C5F89A
:104430001402C5F81802207CD5F804220028204672
:104440004FF001010CBF4FF40073402300F0CEFB8E
:10445000002001B0F0BD00BF0020C4F8BC02022063
:1044600001B0F0BD10B540F20424C2F200040A46C7
:1044700002A0214600F016FA204610BD4344432016
:10448000496E7465726661636500000040F26410F5
:104490000422C2F200000A807047000010B540F20A
:1044A0000424C2F200040A4602A0214600F0FAF9F0
:1044B000204610BD53544D6963726F656C6563741B
:1044C000726F6E696373000010B540F20424C2F28B
:1044D00000040A4602A0214600F0E4F9204610BD7F
:1044E00053544D3332205669727475616C20436F9A
:1044F0006D506F727400000080B5D0F8BC1279B1B5
:1045000090F810C0D1F8042240230121BCF1000F23
:1045100008BF4FF4007300F069FB002080BD00BFAE
:10452000032080BD00290EBF0320C0F8C012002068
:1045300070470000B0B547F29050C1F6FF700268B6
:1045400083684FF01A0C9B18A1F800C000F0A380FC
:104550004FF0370C1A0F0CEB13714068B3F1204F7A
:1045600038BF02F1300140F26812C2F200029170CD
:1045700019014FF0000E0CEB117582F803E0C3F344
:104580000364B1F1204F38BF04F1300519021571F1
:104590000CEB117582F805E0C3F30354B1F1204F21
:1045A00038BF04F13005190395710CEB117582F8D1
:1045B00007E0C3F30344B1F1204F38BF04F13005E5
:1045C000190415720CEB117582F809E0C3F303347A
:1045D000B1F1204F38BF04F13005190595720CEB8D
:1045E000117582F80BE0C3F30324B1F1204F38BFFB
:1045F00004F1300519061573C3F303140CEB1175A0
:10460000B1F1204F4FEA037103F00F0382F80DE080
:1046100038BF04F1300503F13704957382F80FE0D9
:10462000B1F1204F38BF03F13004010F0CEB1073D0
:10463000147482F811E0B0F1204F38BF01F130035B
:1046400001010CEB1174937482F813E0C0F303635F
:10465000B1F1204F38BF03F1300401021475C0F3EB
:1046600003530CEB1174B1F1204F4FEA003182F883
:1046700015E038BF03F130040CEB1173947582F828
:1046800017E0C0F30340B1F1204F38BF00F1300311
:10469000137682F819E040F26810C2F20000B0BD53
:1046A000D0F8BC0200280EBF0320C0F8041200207E
:1046B00070470000D0F8BC0200280FBF0320C0F8EC
:1046C0000812C0F8102200207047000070B582B0B8
:1046D000D0F8BC62044600208DF80700ADF8040055
:1046E000C6B108780D4610F0600117D020295DD1C1
:1046F000EA88002A2AD040B2B0F1FF3F32DD687864
:10470000314686F80002204686F8012200F096F82D
:10471000002617E00326304602B070BD68780B28EB
:1047200044D80026DFE800F0060E424242424242F0
:1047300042422C3A94F89C02032837D101A9204622
:10474000022225E0304602B070BD00BFD4F8C0029E
:10475000294683686878002200269847304602B0D0
:1047600070BD00BFD4F8C0023146836868789847AE
:10477000EA8820463146072A28BF072208E000BF02
:1047800094F89C02032811D10DF107012046012263
:1047900000F06EF80026304602B070BD94F89C021E
:1047A000032803D10026304602B070BD20462946BA
:1047B00000F038F80326304602B070BD80B5D0F85E
:1047C000BC223AB1D2F8141200294FF0010103D0F3
:1047D000084680BD032080BDC2F81412D2F8103202
:1047E000D2F808228121C36200F0D6FA00210846DF
:1047F00080BD000080B5D0F8B8220AB15268904759
:10480000002080BD80B513460A46002100F0EEF975
:10481000002080BD80B513460A46002100F0BCFA96
:10482000002080BD10B58021044600F087FA2046A4
:104830000021BDE8104000F081BA000080B51346A9
:104840000A460321C0F894120021C0E9563300F053
:10485000CDF9002080BD000080B50521C0F894127C
:1048600000210022002300F0C1F9002080BD0000DB
:1048700080B513460A460221C0F894120021C0E90F
:10488000063300F089FA002080BD000080B50421C5
:10489000C0F8941200210022002300F07DFA0020CD
:1048A00080BD000010B5002868D00378B3B100F1D6
:1048B000020E4FF0000C00BF1EF8013C93B19EF8B1
:1048C00000309BB19EF80130A3B19EF802300CF18C
:1048D000040C002B0EF1040EEED10DE04FF0000C95
:1048E0000AE000BF4CF0010C06E000BF4CF0020CE7
:1048F00002E000BF4CF0030C5FFA8CFC022303EBD8
:104900004C03138003220B704A7090F800E0BEF154
:10491000000F33D0841C02224FF0000C1AE000BFBD
:10492000101DC0B20B5440F0010001F800C06378C4
:10493000002B08BF10BD901DC0B20B5440F0010009
:1049400001F800C094F802E00832BEF1000F04F153
:10495000040413D0D3B201F803E043F0010301F8DB
:1049600003C014F8013C4BB1901CC0B20B5440F092
:10497000010001F800C02378002BD1D110BD000048
:10498000002804BF032070470023C0F8B832C0F8E5
:10499000C0320029C0F8CC3218BFC0F8B4120121CF
:1049A00080F89C12027000F0B5B8000080B5D0F815
:1049B000C402FDF737F840F20032C100C0F2013204
:1049C00022FA01F1032888BF0321C8B280BD00008C
:1049D00080B5D0F8C402FCF7FDFF40F20032C10000
:1049E000C0F2013222FA01F1032888BF0321C8B2C4
:1049F00080BD0000B0B5044671B194F89C02032854
:104A00004AD1D4F8B8024269002A45D020469047DE
:104A1000002808BF0020B0BDD4F89402022834D189
:104A2000D4E9070188420DD9431A204611461A4697
:104A3000E361FFF7EFFE204600210022002300F093
:104A4000D5F822E010D1A16981420DD3D4F89802A3
:104A5000814209D22046002100220025FFF7DAFE1C
:104A6000C4F89852E7E700BF94F89C02032805D1E8
:104A7000D4F8B802C16809B1204688472046802191
:104A800000F05CF92046FFF7E7FE94F8A002012849
:104A900004BF002084F8A0020020B0BD10B5044679
:104AA00071B194F89C0203281DD1D4F8B802826930
:104AB000CAB120469047002808BF002010BD00BFA3
:104AC000D4F8940203280ED1D4E9570398420DD9A3
:104AD000C01AC4F85C01984238BF0346204611460C
:104AE0001A46FFF78FFE002010BD00BF94F89C020D
:104AF000032805D1D4F8B802016909B120468847D6
:104B00002046FFF7C3FE002010BD0000D0F8C4020D
:104B1000FCF7BABF10B5044641F6F80045F600416F
:104B2000C2F20000C4F200010822022380E80E0055
:104B30000021C0F8F042C4F8C402C0E90431C0E961
:104B400006110162FDF7F8FC002818BFFCF724FDF0
:104B5000D4F8C402002100221823FCF707FFD4F880
:104B6000C402802100225823FCF700FFD4F8C402BD
:104B700081210022C023FCF7F9FED4F8C4020121F0
:104B800000224FF48873FCF7F1FED4F8C4028221AE
:104B900000224FF48073FCF7E9FE002010BD0000F6
:104BA0004AB2D0F8C40201F07F0101EB810100EBB1
:104BB000C10000F5B571002A48BF00F12A0108784C
:104BC0007047000080B59446D0F8C4021A46634688
:104BD000FCF764FF40F20032C100C0F2013222FA59
:104BE00001F1032888BF0321C8B280BD80B5D0F889
:104BF000C402FCF787FF40F20032C100C0F201326C
:104C000022FA01F1032888BF0321C8B280BD000049
:104C1000F0B581B004460120002184F89C02C4F85C
:104C20009412D4F8B8026160C4F8A41200B3D4F8A6
:104C3000BC1221B1426812B12046002190472046A3
:104C400000210022402300254026FFF7BBFF01275B
:104C50002046802100224023A4F86471C4F86061DA
:104C6000FFF7B0FFA7842662284601B0F0BD00BF61
:104C70000325284601B0F0BD90F89C12042904BF1A
:104C800090F89D1280F89C120020704780B5D0F8F3
:104C9000B81249B190F89C22032A02D1C96901B126
:104CA0008847002080BD00BF032080BD0246002051
:104CB0001174704780B5D0F8C402FDF7FFFC40F2D4
:104CC0000032C100C0F2013222FA01F1032888BF8C
:104CD0000321C8B280BD0000B0B500F2AA25044689
:104CE000284600F06BF80120C4F8940294F8AA0258
:104CF000B4F8B02200F01F010229C4F8982209D0AC
:104D000001290DD091B920462946BDE8B04000F0F8
:104D100083B800BF20462946BDE8B04000F036BA4F
:104D200020462946BDE8B04000F0D4BA00F080012A
:104D30002046BDE8B04000F001B8000080B5D0F8D2
:104D4000C402FCF7F9FE40F20032C100C0F20132A9
:104D500022FA01F1032888BF0321C8B280BD0000F8
:104D600080B5D0F8C402FDF7C5FC40F20032C100A6
:104D7000C0F2013222FA01F1032888BF0321C8B230
:104D800080BD0000014690F89C02042281F89D023B
:104D9000002081F89C22704780B5D0F8C402FCF74F
:104DA000FFFE40F20032C100C0F2013222FA01F1EE
:104DB000032888BF0321C8B280BD00000A780270B2
:104DC0004A7842704A8842808A888280C988C18035
:104DD0007047000010B582B004460020ADF8060010
:104DE00061B1CA6AC4F8B81222B10DF10600904749
:104DF000C4F8CC02002002B010BD00BF032002B0F6
:104E000010BD0000D0F8B822002A04BF032070476C
:104E100012681047FFF7A4BFB0B582B00D460978FD
:104E2000044611F060010DD0402901D020292FD176
:104E3000D4F8B80229468268204602B0BDE8B040E6
:104E4000104700BF6878092800F2D680DFE810F02C
:104E50000A002C00D4003E00D40046006600D400B6
:104E60008000940094F89C020138022800F2C4806B
:104E7000E888022840F0C080D4F8A4020322002869
:104E800008BF0122214641F80C2F2046022203E1EF
:104E900020468021FFF752FF204600210025FFF722
:104EA0004DFF284602B0B0BD94F89C02013802289C
:104EB00000F2A280688800250128F2D12046C4F8BB
:104EC000A452FFF7E3FC284602B0B0BD6888012871
:104ED00040F068800120C4F8A40211E1A8880028ED
:104EE00040F08A80E888002840F0868068887F2823
:104EF00000F2828094F89C12032900F07D80C5B2F4
:104F000084F89E0220462946FFF7D4FE2046FFF78C
:104F1000BDFC002D0CBF012002201DE168884FF070
:104F2000FF3101EB102100220E29ADF8062000F21E
:104F3000B980DFE801F0096D7BB7B78791B7B7B7E4
:104F4000B7B7B7B79D0000BFD4F8B402026893E0CA
:104F5000E888012850D194F89C02411E022945D2CC
:104F60000025214641F8085F20460122FFF780FC1A
:104F7000284602B0B0BD00BF688840F20025C2F2EA
:104F8000000510F0FE0F287010D020468021FFF79A
:104F9000D5FE20460021FFF7D1FE0325284602B0AA
:104FA000B0BD00BF0025284602B0B0BD94F89C22D9
:104FB000C1B2032A00F08280022A40F0A9800029B1
:104FC00000F09E8020466160FFF71CFF002800F083
:104FD000BF80054620468021FFF7B0FE2046002115
:104FE000FFF7ACFE284602B0B0BD00BF032803D1D6
:104FF000211D204601224FE020468021FFF79EFE22
:10500000204600210025FFF799FE284602B0B0BDDA
:10501000217CD4F8B80200290CBF816AC16A0DF165
:10502000060088470146022020E000BFC0B20528E4
:1050300038D8DFE800F003979B9FA3A7D4F8B40209
:10504000426818E0207C68BBD4F8B802416B0DF1CF
:105050000600884714E000BF207C18BBD4F8B802D3
:10506000016B0DF10600884701460720487008E0F3
:10507000D4F8B402C269AAB1207C0DF106019047B0
:105080000146EA88E2B3BDF8060058B1904238BF45
:1050900002462046ADF80620FFF7EAFB0025284629
:1050A00002B0B0BD20468021FFF748FE2046002117
:1050B000FFF744FE0025284602B0B0BDC1B36068CA
:1050C00088421DD0C1B22046FFF794FB29782046C4
:1050D0006160FFF797FE98B1054620468021FFF7F3
:1050E0002DFE20460021FFF729FE21792046FFF7FB
:1050F00081FB022084F89C02284602B0B0BD00BFAC
:105100002046FFF7C3FB0025284602B0B0BD00BF14
:1051100020468021FFF712FE20460021FFF70EFEF9
:1051200029782046FFF766FB0325284602B0B0BD6C
:10513000022084F89C026160204600210025FFF7D0
:1051400059FB2046FFF7A2FB284602B0B0BD00BFC6
:105150002046FFF79BFB032084F89C02002528468D
:1051600002B0B0BDD4F8B402826884E7D4F8B402C7
:10517000C26880E7D4F8B40202697CE7D4F8B402CC
:10518000426978E7D4F8B402826974E7B0B50D4695
:105190000978044611F060010CD0402901D0202983
:1051A00022D1D4F8B802294682682046BDE8B04032
:1051B000104700BF6878297900B3012836D003284A
:1051C00068D194F89C02032834D1688838B911F06A
:1051D0007F0004D0E88810B92046FFF7AFFD2046D5
:1051E000FFF754FB0020B0BD20468021FFF7A6FD4D
:1051F00020460021FFF7A2FD0020B0BD94F89C02DC
:10520000032825D0022808BF5FEA416042D111F08F
:10521000800004F114014FF0140004BF4FF4AA7091
:1052200004F5AA710022225020464DE094F89C0219
:10523000032839D002282DD148062BD02046FFF76D
:105240007DFD20468021FFF779FD0020B0BD00BF25
:1052500001F00F0000EB8000802904EB80002CBFE0
:10526000808CB0F86401A8B101F07F0000EB8000F1
:1052700004EB800000F11405802938BF00F5AA7501
:1052800048061DD02046FFF78BFC002818BF0120E0
:1052900017E000BF20468021FFF750FD2046002187
:1052A000FFF74CFD0020B0BD68880028A4D1480657
:1052B00002D02046FFF77AFB2046FFF7E7FA70E7B7
:1052C00000202860204629460222FFF7D1FA00205C
:1052D000B0BD0000B0B50D460978044611F060017C
:1052E00018BF402914D194F89C020138022803D831
:1052F000A88810F0FE0F17D020468021FFF71EFD72
:10530000204600210025FFF719FD2846B0BD00BF4B
:105310002029E8D020468021FFF710FD20460021FB
:105320000025FFF70BFD0BE0D4F8B8022946826890
:1053300020469047E9880546002908BF002D01D086
:105340002846B0BD2046FFF7A1FA0020B0BD0000FE
:105350007047000040F20440C2F2000070470000B5
:10536000F0B50C78024691F803E000EB840730F8C2
:10537000240047F27063BEF1030F20EA030309D84B
:105380000020DFE80EF00309100D00BF43F40073A6
:1053900008E000BF012006E043F4806302E000BFA4
:1053A00043F4C063002048F28006CFF6FF76334313
:1053B0003B803B8840F60F752B40234333433B80B3
:1053C0000B7B48F2800C002B4AD03B8840F60F65DF
:1053D0002B4048F28005BEF1020F08BF05F580752D
:1053E0002B433B80B2F850300D8902EBC4042344B8
:1053F00025F00105A3F80054B2F850204B8922444F
:1054000023F00103A2F8043449783A88002902F411
:1054100080414BD039B1398840F60F7211400CF5FC
:105420008042114339803988490607D5398840F6CA
:105430000F7211400CF1400211433980398840F657
:105440003F7211400CF120024A40BEF1010F08BF2B
:1054500041EA0C023A80398843F60F7245E000BFFA
:105460004D78B2F85030E600CC88002D24F00104CD
:1054700040D091191944A1F800443988490607D54C
:10548000398840F60F7211400CF140021143398007
:10549000398840F63F72BEF1010F01EA020125D0C2
:1054A0000CF1200251403980F0BD00BF39B139887C
:1054B00040F60F7211400CF5804211433980398853
:1054C000490607D5398840F60F7211400CF14002A9
:1054D00011433980398843F60F7211400CF5405260
:1054E00051403980398840F63F72114041EA0C0141
:1054F0003980F0BD16443344A3F80444B2F8502078
:105500000B6906F206413F2B22D35E094FF0FF35AF
:10551000DC0608BF05EB531648F20003CFF6FF7315
:1055200043EA862353523988490407D5398840F61F
:105530000F7211400CF5804211433980398843F6CF
:105540000F7211400CF5405251403980F0BD00BF40
:1055500053B103F0010606EB53039B025352398803
:105560004904EBD5E2E700BF535A48F2000623F4A2
:10557000F8435352535ACFF6FF7633435352398888
:105580004904DBD5D2E70000B0B50C784B78097B35
:10559000024630F824004CF2800C4CF280050029C1
:1055A0004FEA44013AD0002B00F4804040D040B193
:1055B00032F8110040F60F73184040EA0C0022F850
:1055C000110032F8110043F60F7E400640F63F709E
:1055D00009D532F8113040F60F742340ACF57F54F2
:1055E000234322F8113032F8113040F60F74234073
:1055F0002B43ACF5804522F8113032F811301840B9
:10560000284322F8110032F81100ACF5804300EA7B
:105610000E000343002022F81130B0BDF3B1400664
:1056200040F63F7EEFD5ACF57F5540F60F70E4E7CE
:1056300040B132F8110040F60F73184040EA0C00F8
:1056400022F8110032F81100ACF57F55400640F603
:105650003F7E43F60F70BCD4C5E700BF400443F65D
:105660000F7ED0D540F60F70C7E700000146B0F8B6
:10567000580040F400420020A1F858207047000074
:1056800001460120A1F8400000220020A1F840209E
:10569000A1F84420A1F85020704700000146B0F85E
:1056A000400044F27F0202400020A1F840207047F1
:1056B00080B50A7B12B1002080BD00BF0A784B780C
:1056C00030F822C04FEA4202B3B15FEA4C6348F2BD
:1056D000A00E0BD530F812C040F60F730CEA030C85
:1056E0000EF1200343EA0C0320F81230C978012997
:1056F000E1D040F63F7110E05FEA4C414BF2800E82
:1057000009D530F8121040F60F7319400EF580538A
:10571000194320F8121043F60F7130F81230194077
:1057200081EA0E0120F81210002080BD02460B789D
:10573000487832F823C040F63F71002848F29000C4
:1057400008BF43F60F71CFF6FF7008BF00F57F600A
:1057500001EA0C014140002022F8231070470000AC
:105760002DE9F04F82B04A78012A5DD18B690A6930
:105770000F7B934228BF1346002F7BD0CF780C6A53
:10578000022F40F0B9800D7840F60F6630F8257092
:105790004FEA450E944206EA070648F2B00C40F282
:1057A000138148F2B007CFF6FF77D0373E43A4EB22
:1057B000030A20F81E60C1F820A030F81E70B0F86F
:1057C0005060ED007F0600EB050800F1518108EB09
:1057D0000604A4F80234D1F814B09DB2002D00F0F4
:1057E00015830E89064406F580696E1C4FF0FF355F
:1057F00005EB5604C6F34105002D4FEA560700F0AD
:1058000029825E46CDE9004836F8028B5C46CB46DD
:10581000012D2BF8028B40F02182D946DDF804805F
:10582000A346009C013FE0E20B7B002B46D0CB78E7
:10583000012B00F09780022B40F0B680002A40F048
:105840007C81B0F850300F690A7803443E2F03F290
:10585000024340F261817E094FF0FF35FC0608BF2C
:1058600005EB571648F20007CFF6FF7747EA862781
:105870005AE100BF1A0400F0B581CA88D1F814E0DB
:10588000024402F58068012212FA83F24FF0FF37DA
:10589000C2F3410407EB520C002C4FEA520200F015
:1058A0008E81774637F8025B4646012C26F8025B6C
:1058B00040F00C81013ABE46B04680E18A690B692E
:1058C000D71A3CBF002713468F61B0F850700A7892
:1058D00007443F2B07F206476AD35E094FF0FF35B6
:1058E000DC0608BF05EB53164FF4004343EA86235A
:1058F00027F832304DE100BFE21A0F780A6230F823
:105900002720B0F85040FD00520605444FEA470EEC
:105910009AB248F2B00C2C4400F18880002AA4F816
:10592000023400F0ED800B890132496903444FF0E5
:10593000FF34C2F3410503F5806304EB5208002DE8
:105940004FEA520200F0ED810E4636F8024B1F4638
:10595000012D27F8024B40F05F81013A31463B466A
:10596000DFE100BF0B698F69FE1A3CBF00263B4692
:10597000002A8E6140F00D81B0F850700A7807441B
:105980003E2B07F2024740F2F3805E094FF0FF35ED
:10599000DC0608BF05EB531648F20003CFF6FF7391
:1059A00043EA8623ECE000BF012002B0BDE8F08F9F
:1059B000002B00F0978003F0010606EB53039B02D7
:1059C00027F83230E5E000BF48F2B002CFF6FF72B0
:1059D000303A324320F81E20B0F8502000EBC503C7
:1059E0001A442304A2F8024400F08E800A8949690F
:1059F000024402F58063012212FA84F24FF0FF3470
:105A0000C2F3410504EB5208002D4FEA520200F0A8
:105A1000A8810E4636F8024B1F46012D27F8024B8F
:105A200040F00481013A31463B469AE1002AA4F84D
:105A300006346DD04B890132496903444FF0FF347D
:105A4000C2F3410503F5806304EB5208002D4FEAD1
:105A5000520200F0A6810E4636F8024B1F46012D79
:105A600027F8024B40F0EC80013A31463B4698E182
:105A700008EB0605A5F80634D1F814B09DB2002D48
:105A800000F018824E89064406F580696E1C4FF0BE
:105A9000FF3505EB5604C6F34105002D4FEA5607C6
:105AA00000F0DA805E46CDE9004836F8028B5C46AD
:105AB000CB46012D2BF8028B40F0E080D946DDF873
:105AC0000480A346009C013FE3E100BFBEF8025002
:105AD000022CA8F8025069D108F104080EF1040E56
